{
  "contractName": "Diamond_Hands",
  "abi": [
    {
      "anonymous": false,
      "inputs": [
        {
          "indexed": false,
          "internalType": "uint256",
          "name": "_num_of_holds",
          "type": "uint256"
        }
      ],
      "name": "print_num_of_holds",
      "type": "event"
    },
    {
      "inputs": [
        {
          "internalType": "uint256",
          "name": "_seconds_to_hold",
          "type": "uint256"
        }
      ],
      "name": "make_eth_hold",
      "outputs": [
        {
          "internalType": "uint256",
          "name": "",
          "type": "uint256"
        }
      ],
      "stateMutability": "payable",
      "type": "function"
    },
    {
      "inputs": [
        {
          "internalType": "uint256",
          "name": "_seconds_to_hold",
          "type": "uint256"
        },
        {
          "internalType": "uint256",
          "name": "_num_of_tokens",
          "type": "uint256"
        },
        {
          "internalType": "address",
          "name": "_erc_20_contract_address",
          "type": "address"
        }
      ],
      "name": "make_erc_20_hold",
      "outputs": [
        {
          "internalType": "uint256",
          "name": "",
          "type": "uint256"
        }
      ],
      "stateMutability": "nonpayable",
      "type": "function"
    },
    {
      "inputs": [
        {
          "internalType": "address",
          "name": "_contract_address",
          "type": "address"
        },
        {
          "internalType": "uint256",
          "name": "_token_id",
          "type": "uint256"
        },
        {
          "internalType": "uint256",
          "name": "_seconds_to_hold",
          "type": "uint256"
        }
      ],
      "name": "make_erc721_hold",
      "outputs": [
        {
          "internalType": "uint256",
          "name": "",
          "type": "uint256"
        }
      ],
      "stateMutability": "nonpayable",
      "type": "function"
    },
    {
      "inputs": [
        {
          "internalType": "uint256",
          "name": "_hold_id",
          "type": "uint256"
        }
      ],
      "name": "see_time_left",
      "outputs": [
        {
          "internalType": "uint256",
          "name": "",
          "type": "uint256"
        }
      ],
      "stateMutability": "view",
      "type": "function"
    },
    {
      "inputs": [
        {
          "internalType": "uint256",
          "name": "_hold_id",
          "type": "uint256"
        }
      ],
      "name": "collect_hold",
      "outputs": [],
      "stateMutability": "nonpayable",
      "type": "function"
    },
    {
      "inputs": [],
      "name": "show_num_of_holds",
      "outputs": [],
      "stateMutability": "nonpayable",
      "type": "function"
    }
  ],
  "bytecode": "0x60806040526000805534801561001457600080fd5b50610c1e806100246000396000f3fe6080604052600436106100555760003560e01c8063222867fa1461005a57806329da2170146100835780636ccbf364146100b3578063b7e974b1146100ca578063de22811c14610107578063e924358814610144575b600080fd5b34801561006657600080fd5b50610081600480360381019061007c9190610929565b610181565b005b61009d60048036038101906100989190610929565b610367565b6040516100aa9190610965565b60405180910390f35b3480156100bf57600080fd5b506100c8610403565b005b3480156100d657600080fd5b506100f160048036038101906100ec91906109de565b61043e565b6040516100fe9190610965565b60405180910390f35b34801561011357600080fd5b5061012e60048036038101906101299190610a31565b6106b3565b60405161013b9190610965565b60405180910390f35b34801561015057600080fd5b5061016b60048036038101906101669190610929565b610814565b6040516101789190610965565b60405180910390f35b60006001600083815260200190815260200160002060405180610120016040529081600082015481526020016001820160009054906101000a900473ffffffffffffffffffffffffffffffffffffffff1673ffffffffffffffffffffffffffffffffffffffff1673ffffffffffffffffffffffffffffffffffffffff1681526020016002820154815260200160038201548152602001600482015481526020016005820160009054906101000a900473ffffffffffffffffffffffffffffffffffffffff1673ffffffffffffffffffffffffffffffffffffffff1673ffffffffffffffffffffffffffffffffffffffff168152602001600682015481526020016007820160009054906101000a900473ffffffffffffffffffffffffffffffffffffffff1673ffffffffffffffffffffffffffffffffffffffff1673ffffffffffffffffffffffffffffffffffffffff168152602001600882015481525050905060008160a0015190508073ffffffffffffffffffffffffffffffffffffffff166323b872dd3084602001518560c001516040518463ffffffff1660e01b815260040161033093929190610a93565b600060405180830381600087803b15801561034a57600080fd5b505af115801561035e573d6000803e3d6000fd5b50505050505050565b6000610371610860565b60005481600001818152505033816020019073ffffffffffffffffffffffffffffffffffffffff16908173ffffffffffffffffffffffffffffffffffffffff168152505082816040018181525050428160800181815250503481606001818152505060016000808282546103e59190610af9565b9250508190555060016000546103fb9190610b4f565b915050919050565b7fb5b0d980b64f7f6606304bf219505fe6dfc8fefa1417a69c59a058d9902592236000546040516104349190610965565b60405180910390a1565b6000610448610860565b60008590508073ffffffffffffffffffffffffffffffffffffffff166323b872dd3330886040518463ffffffff1660e01b815260040161048a93929190610a93565b600060405180830381600087803b1580156104a457600080fd5b505af11580156104b8573d6000803e3d6000fd5b5050505060005482600001818152505033826020019073ffffffffffffffffffffffffffffffffffffffff16908173ffffffffffffffffffffffffffffffffffffffff16815250508382604001818152505042826080018181525050858260a0019073ffffffffffffffffffffffffffffffffffffffff16908173ffffffffffffffffffffffffffffffffffffffff1681525050848260c00181815250508160016000805481526020019081526020016000206000820151816000015560208201518160010160006101000a81548173ffffffffffffffffffffffffffffffffffffffff021916908373ffffffffffffffffffffffffffffffffffffffff16021790555060408201518160020155606082015181600301556080820151816004015560a08201518160050160006101000a81548173ffffffffffffffffffffffffffffffffffffffff021916908373ffffffffffffffffffffffffffffffffffffffff16021790555060c0820151816006015560e08201518160070160006101000a81548173ffffffffffffffffffffffffffffffffffffffff021916908373ffffffffffffffffffffffffffffffffffffffff160217905550610100820151816008015590505060016000808282546106929190610af9565b9250508190555060016000546106a89190610b4f565b925050509392505050565b6000808290508073ffffffffffffffffffffffffffffffffffffffff166323b872dd3330876040518463ffffffff1660e01b81526004016106f693929190610a93565b602060405180830381600087803b15801561071057600080fd5b505af1158015610724573d6000803e3d6000fd5b505050506040513d601f19601f820116820180604052508101906107489190610bbb565b50610751610860565b60005481600001818152505033816020019073ffffffffffffffffffffffffffffffffffffffff16908173ffffffffffffffffffffffffffffffffffffffff16815250508581604001818152505042816080018181525050838160e0019073ffffffffffffffffffffffffffffffffffffffff16908173ffffffffffffffffffffffffffffffffffffffff168152505060016000808282546107f39190610af9565b9250508190555060016000546108099190610b4f565b925050509392505050565b6000426001600084815260200190815260200160002060020154600160008581526020019081526020016000206004015461084f9190610af9565b6108599190610b4f565b9050919050565b60405180610120016040528060008152602001600073ffffffffffffffffffffffffffffffffffffffff168152602001600081526020016000815260200160008152602001600073ffffffffffffffffffffffffffffffffffffffff16815260200160008152602001600073ffffffffffffffffffffffffffffffffffffffff168152602001600081525090565b600080fd5b6000819050919050565b610906816108f3565b811461091157600080fd5b50565b600081359050610923816108fd565b92915050565b60006020828403121561093f5761093e6108ee565b5b600061094d84828501610914565b91505092915050565b61095f816108f3565b82525050565b600060208201905061097a6000830184610956565b92915050565b600073ffffffffffffffffffffffffffffffffffffffff82169050919050565b60006109ab82610980565b9050919050565b6109bb816109a0565b81146109c657600080fd5b50565b6000813590506109d8816109b2565b92915050565b6000806000606084860312156109f7576109f66108ee565b5b6000610a05868287016109c9565b9350506020610a1686828701610914565b9250506040610a2786828701610914565b9150509250925092565b600080600060608486031215610a4a57610a496108ee565b5b6000610a5886828701610914565b9350506020610a6986828701610914565b9250506040610a7a868287016109c9565b9150509250925092565b610a8d816109a0565b82525050565b6000606082019050610aa86000830186610a84565b610ab56020830185610a84565b610ac26040830184610956565b949350505050565b7f4e487b7100000000000000000000000000000000000000000000000000000000600052601160045260246000fd5b6000610b04826108f3565b9150610b0f836108f3565b9250827fffffffffffffffffffffffffffffffffffffffffffffffffffffffffffffffff03821115610b4457610b43610aca565b5b828201905092915050565b6000610b5a826108f3565b9150610b65836108f3565b925082821015610b7857610b77610aca565b5b828203905092915050565b60008115159050919050565b610b9881610b83565b8114610ba357600080fd5b50565b600081519050610bb581610b8f565b92915050565b600060208284031215610bd157610bd06108ee565b5b6000610bdf84828501610ba6565b9150509291505056fea2646970667358221220ea3a40e58019c0e86a37e09a6a61e28639c854d255607dc76351a719f5285c2a64736f6c63430008090033",
  "immutableReferences": {},
  "source": "// SPDX-License-Identifier: MIT\n\n// import \"https://github.com/OpenZeppelin/openzeppelin-contracts/blob/master/contracts/token/ERC721/IERC721.sol\";\n// import \"https://github.com/OpenZeppelin/openzeppelin-contracts/blob/master/contracts/token/ERC20/IERC20.sol\";\n\nimport \"@openzeppelin/contracts/token/ERC721/IERC721.sol\";\nimport \"@openzeppelin/contracts/token/ERC20/IERC20.sol\";\n\npragma solidity ^0.8.0;\n\ncontract Diamond_Hands {\n\n  uint num_of_holds = 0;\n\n  event print_num_of_holds(uint _num_of_holds);\n\n  struct Hold_Struct {\n    uint hold_id;\n    address addy;\n    uint seconds_to_hold;\n    uint wei_stored;\n    uint date_hold_created;\n    address nft_contract_addres;\n    uint nft_token_id;\n    address erc_20_contract_address;\n    uint erc_20_tokens_stored;\n  }\n\n  mapping(uint => Hold_Struct) holds;\n\n  function make_eth_hold(uint _seconds_to_hold) public payable returns(uint) {\n    Hold_Struct memory new_hold;\n    new_hold.hold_id = num_of_holds;\n    new_hold.addy = msg.sender;\n    new_hold.seconds_to_hold = _seconds_to_hold;\n    new_hold.date_hold_created = block.timestamp;\n    new_hold.wei_stored = msg.value;\n    num_of_holds += 1;\n    return num_of_holds - 1;\n  }\n\n  function make_erc_20_hold(uint _seconds_to_hold, uint _num_of_tokens, address _erc_20_contract_address) public returns(uint) {\n    IERC20 erc20_contract = IERC20(_erc_20_contract_address);\n    erc20_contract.transferFrom(msg.sender, address(this), _num_of_tokens);\n    Hold_Struct memory new_hold;\n    new_hold.hold_id = num_of_holds;\n    new_hold.addy = msg.sender;\n    new_hold.seconds_to_hold = _seconds_to_hold;\n    new_hold.date_hold_created = block.timestamp;\n    new_hold.erc_20_contract_address = _erc_20_contract_address;\n    num_of_holds += 1;\n    return num_of_holds - 1;\n  }\n\n  function make_erc721_hold(address _contract_address, uint _token_id, uint _seconds_to_hold) public returns(uint) {\n    Hold_Struct memory new_hold;\n    IERC721 nft_contract = IERC721(_contract_address);\n    nft_contract.transferFrom(address(msg.sender), address(this), uint256(_token_id));\n    new_hold.hold_id = num_of_holds;\n    new_hold.addy = msg.sender;\n    new_hold.seconds_to_hold = _seconds_to_hold;\n    new_hold.date_hold_created = block.timestamp;\n\n    new_hold.nft_contract_addres = _contract_address;\n    new_hold.nft_token_id = _token_id;\n\n    holds[num_of_holds] = new_hold;\n    num_of_holds += 1;\n    return num_of_holds - 1;\n  }\n\n  function see_time_left(uint _hold_id) public view returns (uint) {\n    return holds[_hold_id].date_hold_created + holds[_hold_id].seconds_to_hold - block.timestamp;\n  }\n\n  function collect_hold(uint _hold_id) public {\n    Hold_Struct memory hold = holds[_hold_id];\n    IERC721 nft_contract = IERC721(hold.nft_contract_addres);\n    nft_contract.transferFrom(address(this), address(hold.addy), uint256(hold.nft_token_id));\n  }\n\n  function show_num_of_holds() public {\n      emit print_num_of_holds(num_of_holds);\n  }\n\n}",
  "sourcePath": "/Users/jackantico/Desktop/diamond_hands/contracts/diamond_hands.sol",
  "compiler": {
    "name": "solc",
    "version": "0.8.9+commit.e5eed63a.Emscripten.clang"
  },
  "schemaVersion": "3.4.3",
  "updatedAt": "2022-03-07T17:29:17.499Z",
  "devdoc": {
    "kind": "dev",
    "methods": {},
    "version": 1
  },
  "userdoc": {
    "kind": "user",
    "methods": {},
    "version": 1
  }
}