{
  "contractName": "hodl",
  "abi": [
    {
      "inputs": [],
      "stateMutability": "nonpayable",
      "type": "constructor"
    },
    {
      "inputs": [
        {
          "internalType": "uint256",
          "name": "_secondsToHodl",
          "type": "uint256"
        }
      ],
      "name": "makeHodl",
      "outputs": [
        {
          "internalType": "uint256",
          "name": "",
          "type": "uint256"
        }
      ],
      "stateMutability": "payable",
      "type": "function"
    },
    {
      "inputs": [
        {
          "internalType": "uint256",
          "name": "id",
          "type": "uint256"
        }
      ],
      "name": "collectHodl",
      "outputs": [],
      "stateMutability": "nonpayable",
      "type": "function"
    },
    {
      "inputs": [],
      "name": "showNumOfHodls",
      "outputs": [
        {
          "internalType": "uint256",
          "name": "_numOfHodls",
          "type": "uint256"
        }
      ],
      "stateMutability": "view",
      "type": "function"
    },
    {
      "inputs": [
        {
          "internalType": "uint256",
          "name": "id",
          "type": "uint256"
        }
      ],
      "name": "showTimeLeft",
      "outputs": [
        {
          "internalType": "uint256",
          "name": "_timeLeft",
          "type": "uint256"
        },
        {
          "internalType": "string",
          "name": "_message",
          "type": "string"
        }
      ],
      "stateMutability": "view",
      "type": "function"
    }
  ],
  "bytecode": "0x6080604052736f8c0b4bc4b50e5f688f9dd35f2e222c04cf15bc600160006101000a81548173ffffffffffffffffffffffffffffffffffffffff021916908373ffffffffffffffffffffffffffffffffffffffff16021790555034801561006557600080fd5b5060016000819055506109598061007d6000396000f3fe60806040526004361061003f5760003560e01c8063085e394f14610044578063def387131461006d578063e244fcc1146100ab578063eada76b9146100d6575b600080fd5b34801561005057600080fd5b5061006b6004803603810190610066919061064c565b610106565b005b34801561007957600080fd5b50610094600480360381019061008f919061064c565b6102d0565b6040516100a2929190610721565b60405180910390f35b3480156100b757600080fd5b506100c061044f565b6040516100cd9190610751565b60405180910390f35b6100f060048036038101906100eb919061064c565b610458565b6040516100fd9190610751565b60405180910390f35b6000600260008381526020019081526020016000206040518060a0016040529081600082015481526020016001820160009054906101000a900473ffffffffffffffffffffffffffffffffffffffff1673ffffffffffffffffffffffffffffffffffffffff1673ffffffffffffffffffffffffffffffffffffffff16815260200160028201548152602001600382015481526020016004820154815250509050806040015181608001516101ba919061079b565b42116101fb576040517f08c379a00000000000000000000000000000000000000000000000000000000081526004016101f29061083d565b60405180910390fd5b600160009054906101000a900473ffffffffffffffffffffffffffffffffffffffff1673ffffffffffffffffffffffffffffffffffffffff166108fc66038d7ea4c680009081150290604051600060405180830381858888f1935050505015801561026a573d6000803e3d6000fd5b50806020015173ffffffffffffffffffffffffffffffffffffffff166108fc66038d7ea4c6800083606001516102a0919061085d565b9081150290604051600060405180830381858888f193505050501580156102cb573d6000803e3d6000fd5b505050565b6000606060006060600054851015610405576040518060400160405280600a81526020017f486f646c20666f756e640000000000000000000000000000000000000000000081525090506000600260008781526020019081526020016000206040518060a0016040529081600082015481526020016001820160009054906101000a900473ffffffffffffffffffffffffffffffffffffffff1673ffffffffffffffffffffffffffffffffffffffff1673ffffffffffffffffffffffffffffffffffffffff16815260200160028201548152602001600382015481526020016004820154815250509050806040015181608001516103ce919061079b565b42106103dd57600092506103ff565b42816040015182608001516103f2919061079b565b6103fc919061085d565b92505b50610442565b6040518060400160405280600e81526020017f486f646c206e6f7420666f756e640000000000000000000000000000000000008152509050600091505b8181935093505050915091565b60008054905090565b600080600054905067016345785d8a000034106104aa576040517f08c379a00000000000000000000000000000000000000000000000000000000081526004016104a190610903565b60405180910390fd5b6104b26105cc565b60005481600001818152505033816020019073ffffffffffffffffffffffffffffffffffffffff16908173ffffffffffffffffffffffffffffffffffffffff16815250508381604001818152505034816060018181525050428160800181815250508060026000805481526020019081526020016000206000820151816000015560208201518160010160006101000a81548173ffffffffffffffffffffffffffffffffffffffff021916908373ffffffffffffffffffffffffffffffffffffffff16021790555060408201518160020155606082015181600301556080820151816004015590505060016000808282546105ad919061079b565b9250508190555060016000546105c3919061085d565b92505050919050565b6040518060a0016040528060008152602001600073ffffffffffffffffffffffffffffffffffffffff1681526020016000815260200160008152602001600081525090565b600080fd5b6000819050919050565b61062981610616565b811461063457600080fd5b50565b60008135905061064681610620565b92915050565b60006020828403121561066257610661610611565b5b600061067084828501610637565b91505092915050565b61068281610616565b82525050565b600081519050919050565b600082825260208201905092915050565b60005b838110156106c25780820151818401526020810190506106a7565b838111156106d1576000848401525b50505050565b6000601f19601f8301169050919050565b60006106f382610688565b6106fd8185610693565b935061070d8185602086016106a4565b610716816106d7565b840191505092915050565b60006040820190506107366000830185610679565b818103602083015261074881846106e8565b90509392505050565b60006020820190506107666000830184610679565b92915050565b7f4e487b7100000000000000000000000000000000000000000000000000000000600052601160045260246000fd5b60006107a682610616565b91506107b183610616565b9250827fffffffffffffffffffffffffffffffffffffffffffffffffffffffffffffffff038211156107e6576107e561076c565b5b828201905092915050565b7f484f444c20686173206e6f7420636f6d706c6574656420796574000000000000600082015250565b6000610827601a83610693565b9150610832826107f1565b602082019050919050565b600060208201905081810360008301526108568161081a565b9050919050565b600061086882610616565b915061087383610616565b9250828210156108865761088561076c565b5b828203905092915050565b7f484f444c20776173206e6f7420637265617465642c20696e737566666963656e60008201527f742066756e647300000000000000000000000000000000000000000000000000602082015250565b60006108ed602783610693565b91506108f882610891565b604082019050919050565b6000602082019050818103600083015261091c816108e0565b905091905056fea26469706673582212208893c88979249d4c53140538f3fc62b8c02d7a8797434bb5f76a31a151ed6a7964736f6c63430008090033",
  "immutableReferences": {},
  "source": "// SPDX-License-Identifier: UNLICENSED\n\npragma solidity 0.8.9;\n\ncontract hodl {\n\n  uint numOfHodls;\n  address payable addyOfCreator = payable(0x6f8C0b4bC4b50e5f688F9DD35F2E222c04CF15bC);\n\n  struct hodlStruct {\n    uint hodlID;\n    address payable addy;\n    uint secondsToHodl;\n    uint weiStored;\n    uint dateHodlCreated;\n  }\n\n  mapping(uint => hodlStruct) hodls;\n\n  constructor() {\n    numOfHodls = 1;\n  }\n\n  function makeHodl(uint _secondsToHodl) payable public returns(uint) {\n    uint hodlID = numOfHodls;\n    require(msg.value < 0.1 ether, \"HODL was not created, insufficent funds\");\n    hodlStruct memory newHodl;\n    newHodl.hodlID = numOfHodls;\n    newHodl.addy = payable(msg.sender);\n    newHodl.secondsToHodl = _secondsToHodl;\n    newHodl.weiStored = msg.value;\n    newHodl.dateHodlCreated = block.timestamp;\n    hodls[numOfHodls] = newHodl;\n    numOfHodls += 1;\n    return numOfHodls - 1;\n  }\n\n  function collectHodl(uint id) public {\n    hodlStruct memory userHodl = hodls[id];\n    require(block.timestamp > userHodl.dateHodlCreated + userHodl.secondsToHodl, 'HODL has not completed yet');\n    addyOfCreator.transfer(0.001 ether);\n    userHodl.addy.transfer(userHodl.weiStored - 0.001 ether);\n  }\n\n  function showNumOfHodls() public view returns(uint _numOfHodls){\n    return numOfHodls;\n  }\n\n  function showTimeLeft(uint id) public view returns(uint _timeLeft, string memory _message){\n    uint timeLeft;\n    string memory message;\n    if (id < numOfHodls) {\n      message = 'Hodl found';\n      hodlStruct memory userHodl = hodls[id];\n      if (block.timestamp >= userHodl.dateHodlCreated + userHodl.secondsToHodl) {\n        timeLeft = 0;\n      } else {\n        timeLeft = (userHodl.dateHodlCreated + userHodl.secondsToHodl) - block.timestamp;\n      }\n    } else {\n      message = 'Hodl not found';\n      timeLeft = 0;\n    }\n    return (timeLeft, message);\n  }\n}",
  "sourcePath": "/Users/jackantico/Desktop/hodl/contracts/hodl.sol",
  "compiler": {
    "name": "solc",
    "version": "0.8.9+commit.e5eed63a.Emscripten.clang"
  },
  "schemaVersion": "3.4.3",
  "updatedAt": "2022-02-01T02:46:35.877Z",
  "devdoc": {
    "kind": "dev",
    "methods": {},
    "version": 1
  },
  "userdoc": {
    "kind": "user",
    "methods": {},
    "version": 1
  }
}